:020000040800F2
:10000000100D00204D010008693200080F2E000875
:1000100065320008A90200089D7800080000000071
:10002000000000000000000000000000515C00081B
:10003000E503000800000000DF3400080D5E000842
:100040006701000867010008A15F00086701000858
:1000500067010008670100086701000867010008E0
:1000600067010008670100086701000867010008D0
:10007000670100086701000867010008190300080C
:1000800067010008670100086701000867010008B0
:1000900067010008670100086701000867010008A0
:1000A0006701000867010008670100086701000890
:1000B0006701000867010008670100086701000880
:1000C0006701000867010008670100086701000870
:1000D000670100088D7100086701000867010008CA
:1000E0006701000867010008D939000867010008A6
:1000F0006701000867010008670100086701000840
:1001000067010008670100085D50000867010008EA
:10011000670100086701000867010008670100081F
:10012000670100086701000867010008670100080F
:100130006701000867010008DFF80CD000F0A2F8A2
:1001400000480047917A0008100D002006488047BB
:1001500006480047FEE7FEE7FEE7FEE7FEE7FEE7AC
:10016000FEE7FEE7FEE7FEE79D5F000839010008B5
:100170002DE9F05F0546002092469B4688460646DC
:10018000814640241BE0284641464746224600F06F
:1001900069F853465A46C01A914110D31146184681
:1001A000224600F050F82D1A67EB01084F46224610
:1001B0000120002100F047F817EB00094E41201EF6
:1001C000A4F10104DFDC484631462A464346BDE837
:1001D000F09F40EA01039B0703D009E008C9121F02
:1001E00008C0042AFAD203E011F8013B00F8013BF1
:1001F000521EF9D27047D2B201E000F8012B491E1D
:10020000FBD270470022F6E710B513460A460446B3
:100210001946FFF7F0FF204610BD421C10F8011BE5
:100220000029FBD1801A704730B5054600200346EF
:1002300000E05B1C934205D2EC5CC85C201A01D143
:10024000002CF6D130BD202A04DB203A00FA02F15E
:10025000002070479140C2F1200320FA03F31943B4
:1002600090407047202A04DB203A21FA02F0002156
:10027000704721FA02F3D040C2F1200291400843B6
:1002800019467047064C074D06E0E06840F0010350
:1002900094E8070098471034AC42F6D3FFF750FFBC
:1002A000548100087481000800BFFEE700B585B0E6
:1002B00000F0B0F800F0C6F800F0B8F81421684675
:1002C000FFF7A0FF0120019000200290032003907F
:1002D000022002F0BAFD022002F0B7FD4FF4805078
:1002E000009069460B4800F0A1FB4FF400500090CD
:1002F0006946084800F09AFB00224FF480510548F7
:1003000000F066FC00224FF40051024800F060FC4F
:1003100005B000BD0004004810B5024800F09AF98D
:1003200010BD00004C010020124B02689A420BD213
:10033000426C9208104B03EB820282640278083A06
:100340001423B2FBF3F10CE0426C92080A4B1C330D
:1003500003EB820282640278083A1423B2FBF3F2C0
:10036000D11D054A8032C26401F01F0301229A4068
:10037000026570470804024000080240027902F05A
:100380007F014A1E064B03EB82024265044A40325B
:1003900082654A1E02F0030301229A40C26570473B
:1003A0000009024030B5D0E913546C60446D14B1BB
:1003B000D0E916546C6090F8444004F01C05012408
:1003C000AC40056C6C60046863608468102C04D1D8
:1003D0000468A2600468E16003E00468A160046846
:1003E000E26030BD704772B600BFFEE700BF08484C
:1003F0008068014603E000BF05488068014600BFF1
:10040000034880688842F6D1C1F1FF307047000090
:100410000028004000BF0448406820F00100024965
:10042000486000BF70470000002004E000BF04489F
:10043000406820F004000249486000BF7047000097
:10044000002004E000BF0448406820F00200024998
:10045000486000BF70470000002004E0014609B971
:100460000120704791F82500022808D00420C863B5
:1004700000BF002081F8240000BF0120F1E70868D8
:10048000006820F00E000A681060886C006820F494
:1004900080708A6C10600868006820F001000A68AB
:1004A000106091F8440000F01C02012090400A6C9A
:1004B0005060D1E913205060486D40B1486D00682C
:1004C00020F480704A6D1060D1E916205060012040
:1004D00081F8250000BF002081F8240000BF00BF84
:1004E000BFE770B50446002594F82500022803D024
:1004F0000420E063012534E02068006820F00E004D
:10050000216808602068006820F001002168086008
:10051000A06C006820F48070A16C086094F844001E
:1005200000F01C0101208840216C4860D4E91310C0
:100530004860606D40B1606D006820F48070616D4E
:100540000860D4E916104860012084F8250000BF37
:10055000002084F8240000BFA06B10B12046A16BDE
:100560008847284670BD10B502460B4600200AB9E0
:10057000012010BD1468216803F010043CB103F49D
:10058000801414B141F4801101E021F48011146849
:10059000216000BFEDE7000010B504460CB9012052
:1005A00010BD2068006820F001002168086027491C
:1005B000206888420BD226492068401A1421B0FBDB
:1005C000F1F0800060642248083820640AE01F4986
:1005D0002068401A1421B0FBF1F0800060641B48D1
:1005E0000838206400202168086094F8440000F076
:1005F0001C0101208840216C48602046FFF794FED2
:100600000020A16C0860D4E913104860606858B1FC
:100610006068042808D82046FFF7B0FE0020616D0E
:100620000860D4E91610486000206065A065E065A8
:10063000E06220636063A063E06384F8250000BF8C
:1006400084F8240000BF00BFAAE7000008040240AD
:100650000800024070B50446206C056820680668F2
:1006600094F8440000F01C01042088402840E0B1C8
:1006700006F00400C8B12068006800F0200028B926
:100680002068006820F004002168086094F84400A5
:1006900000F01C0104208840216C4860206B002879
:1006A00065D02046216B884761E094F8440000F053
:1006B0001C0102208840284088B306F0020070B375
:1006C0002068006800F0200040B92068006820F031
:1006D0000A0021680860012084F825002449206868
:1006E000884208D994F8440000F01C010220884098
:1006F0002049086008E094F8440000F01C01022042
:1007000088401B498039486000BF002084F82400DD
:1007100000BFE06A58B32046E16A884727E0FFE758
:1007200094F8440000F01C01082088402840F0B1F3
:1007300006F00800D8B12068006820F00E0021689B
:10074000086094F8440000F01C0101208840216CEE
:1007500048600120E06384F8250000BF002084F891
:10076000240000BF606B10B12046616B884770BDEC
:10077000800002400404024010B504460CB9012078
:1007800010BD3349206888420BD232492068401A94
:100790001421B0FBF1F0800060642E48083820641A
:1007A0000AE02B492068401A1421B0FBF1F08000C8
:1007B0006064274808382064022084F825002068F7
:1007C000006847F6F071884321680860D4E90201A7
:1007D00008432169084361690843A1690843E16945
:1007E0000843216A084321680968084321680860B2
:1007F0002046FFF799FDA068B0F5804F01D1002099
:100800006060207900F07F00A16C0860D4E91310CB
:100810004860606860B16068042809D82046FFF726
:10082000ADFD0020616D0860D4E91610486003E05A
:1008300000206065A065E0650020E063012084F889
:10084000250000BF002084F8240000BF00BF97E708
:1008500008040240080002402DE9F04104460D461C
:1008600016461F464FF0000800BF94F824000128E8
:1008700002D10220BDE8F081012084F8240000BFED
:1008800094F8250001283FD1022084F8250000209B
:10089000E0632068006820F00100216808603B46A2
:1008A000324629462046FFF77DFD206B30B1206897
:1008B000006840F00E00216808600BE020680068C6
:1008C00020F00400216808602068006840F00A00F9
:1008D00021680860A06C006800F4803028B1A06C2A
:1008E000006840F48070A16C0860606D28B1606D94
:1008F000006840F48070616D08602068006840F016
:1009000001002168086008E08020E06300BF00204B
:1009100084F8240000BF4FF001084046AAE701B563
:10092000009805F0A3FB08BDF0B502460B46002079
:100930006EE00125854005EA0301002967D0374DA7
:10094000860855F8264085072E0F0725B5402C4010
:10095000B2F1904F01D100250AE0314DAA4201D1F8
:10096000012505E02F4DAA4201D1022500E007250F
:100970008607360FB540A54223D12B4D2D688D43F8
:10098000294E3560351D2D688D43361D3560264D49
:10099000803D2D688D43244E803E3560351D2D6889
:1009A0008D43361D356085072E0F072505FA06F4A1
:1009B0001A4D860855F82650A543184E870846F864
:1009C0002750156847000326BE4035431560C6080A
:1009D00002F1200555F826504607F70E0F26BE40B7
:1009E000B543C70802F1200646F82750956847002E
:1009F0000326BE40B5439560556801268640B54341
:100A00005560D56847000326BE40B543D560401CFD
:100A100023FA00F5002D8CD1F0BD00000800014044
:100A200000040048000800488008005870B50346DC
:100A30000022B4E0012696400D6805EA0604002C69
:100A40007DD04D68012D08D04D68022D05D04D6830
:100A5000112D02D04D68122D13D198685600032530
:100A6000B540A8435600CD68B54028439860586803
:100A700001259540A8430D79C5F3001595402843FD
:100A80005860D86856000325B540A84356008D68C5
:100A9000B5402843D8604D68022D02D04D68122D14
:100AA00013D1D60803F1200555F826005507EE0EA0
:100AB0000F25B540A8435607F60E0D69B5402843EB
:100AC000D60803F1200545F82600186856000325CE
:100AD000B540A8430D7905F003055600B5402843FD
:100AE00018604D6805F08055B5F1805F56D12F4DE7
:100AF000960855F8260095072E0F0725B540A84300
:100B0000B3F1904F01D100250AE0294DAB4201D14C
:100B1000012505E0274DAB4201D1022500E0072564
:100B20009607360FB5402843204D960845F8260015
:100B3000214D2868A0434D6805F4803500E02DE084
:100B4000B5F5803F00D120431B4D28602D1D28683E
:100B5000A0434D6805F40035B5F5003F00D12043B2
:100B6000154D2D1D2860144D803D2868A0434D680B
:100B700005F48015B5F5801F00D120430E4D803D52
:100B800028602D1D2868A0434D6805F40015B5F5B3
:100B9000001F00D12043084D7C3D2860521C0D6889
:100BA000D540002D7FF446AF70BD00000800014025
:100BB00000040048000800488008005810B5426949
:100BC00021EA020302EA010443EA0443836110BDFF
:100BD0000AB1816100E081627047000010B5002415
:100BE0000348007810B105F083FA0446204610BD92
:100BF0000000002010B50024032000F089F800F068
:100C000089FB064908600F2000F00AF808B10124AA
:100C100001E000F008F8204610BD00003000002080
:100C2000014600207047704710B50146084600286D
:100C300017DB00F01F0301229A400B4B440943F8D5
:100C4000242000BF00BF00BFBFF34F8F00BF00BF15
:100C500000BF00BF00BF00BFBFF36F8F00BF00BF6A
:100C600000BF00BF10BD000080E100E00146084663
:100C700000280DDB00BF00BF00F01F0301229A40D7
:100C800043099B0003F1E023C3F8002100BF00BF2C
:100C900000BF70472DE9F05F80460D46164606F00E
:100CA000FFFD074639462A46334601F00700C0F1EA
:100CB000070ABAF1040F02D94FF0040A01E0C0F1AB
:100CC000070AD14600F1040ABAF1070F02D24FF029
:100CD000000A01E0A0F1030AD4464FF0010A0AFA23
:100CE00009FAAAF1010A0AEA020A0AFA0CFA4FF012
:100CF000010B0BFA0CFBABF1010B0BEA030B4AEAFD
:100D00000B042146404606F0D3FDBDE8F09F0000ED
:100D100000BF00F00702064B19684FF6FF031940A9
:100D2000044B0B4343EA0221014B196000BF70479B
:100D30000CED00E00000FA051248006820F4804045
:100D4000104A106010480068322250430F4AB0FB2E
:100D5000F2F100E0491E0B481430006800F4007006
:100D6000B0F5007F01D10029F4D1064814300068A5
:100D700000F40070B0F5007F01D10320704700201F
:100D8000FCE70000000400583000002040420F0043
:100D90000348006840F48040014908607047000043
:100DA000000400580D49096821F00701891C0B4A0D
:100DB00011600B49096841F00401094A11600128DA
:100DC00001D130BF02E040BF20BF20BF0449096805
:100DD00021F00401024A116070470000000400582D
:100DE00010ED00E00248006800F4C06070470000A9
:100DF000000400580348006840F48070014908600E
:100E0000704700000004005870B504460D4654B900
:100E10001048006800F40070B0F5007F0AD1FFF7B9
:100E20008BFF38B170BD0B48006800F4007008B942
:100E3000FFF7AEFF0848006820F00400064908608C
:100E4000012D01D130BF02E040BF20BF20BF00BF55
:100E5000E8E700001404005810ED00E02DE9F0412F
:100E6000044600270026B046206800F48030B0F524
:100E7000803F5FD1FFF7BEFFFFF7B0FE054606E0FB
:100E8000FFF7ACFE401B022801D9032606E07E488E
:100E9000006800F48070B0F5807FF1D100BF002EB3
:100EA00047D100BF7948006800F44070616B884208
:100EB0001AD07648006820F4407700BF4FF0B04069
:100EC000D0F8900040F480307049086000BF00BF47
:100ED0004FF0B040D0F8900020F48030086000BFA0
:100EE0004FF0B040C0F8907007F00200022811D116
:100EF000FFF774FE054608E0FFF770FE401B41F265
:100F00008831884201D9032603E002F031F8012834
:100F1000F2D100BF5EB9606B5C49096821F4407191
:100F200001434FF0B042C2F8901000BF02E0B0465B
:100F300000E0B046207800F0010010B1606802F0D7
:100F40009DF8207800F00200022802D1A06802F08B
:100F500095F8207800F0200020280CD120694B491A
:100F60000839096821F4406101434FF0B042C2F8EA
:100F7000881000BF00BF208800F40070B0F5007F2B
:100F800002D1206A02F06CF8208800F48060B0F58D
:100F9000806F02D1606A02F063F8208800F400607C
:100FA000B0F5006F02D1A06A02F05AF8207800F084
:100FB0004000402802D1606902F03EF8207800F03D
:100FC0008000802802D1A06902F036F8208800F461
:100FD0008070B0F5807F02D1E06902F02DF82078B2
:100FE00000F01000102815D1E06828490839096878
:100FF00021F4407101434FF0B042C2F8881000BFA5
:10100000E068B0F5807F05D11046C06840F0807080
:101010001146C860208800F40040B0F5004F13D19D
:10102000206B1A490839096821F0404101434FF00B
:10103000B042C2F8881000BF206B28B91046C068C3
:1010400040F080701146C860208800F48040B0F500
:10105000804F15D1E06A0D490839096821F04051E7
:1010600001434FF0B042C2F8881000BFE06AB0F10F
:10107000005F05D11046C06840F480301146C8605A
:101080004046BDE8F0810000000400589000005880
:1010900070B504460E460CB9012070BD9948006831
:1010A00000F00700B04217D29648006820F0070011
:1010B000304394490860FFF791FD054606E0FFF7CD
:1010C0008DFD401B022801D90320E6E78D4800680A
:1010D00000F00700B042F2D1207800F002000228B0
:1010E0001DD1A0684FF0B041896821F0F0010143A3
:1010F0004FF0B042916000BFFFF770FD054606E07B
:10110000FFF76CFD401B022801D90320C5E700BF93
:101110004FF0B0408068C0F300400028F0D0207845
:1011200000F0200020281CD160697749096821F06F
:10113000F00101434FF0B042C2F8081100BFFFF7C1
:101140004DFD054606E0FFF749FD401B022801D989
:101150000320A2E700BF6C480068C0F340400028AD
:10116000F1D0207800F0400040281DD1A0696649E8
:10117000096821F00F0141EA10114FF0B042C2F8A6
:10118000081100BFFFF72AFD054606E0FFF726FD20
:10119000401B022801D903207FE700BF5A4800689E
:1011A000C0F300400028F1D0207800F004000428AB
:1011B0001DD1E0684FF0B041896821F4E06101433E
:1011C0004FF0B042916000BFFFF708FD054606E012
:1011D000FFF704FD401B022801D903205DE700BF93
:1011E0004FF0B0408068C0F340400028F0D0207835
:1011F00000F0080008281ED12169C8004FF0B04156
:10120000896821F4605101434FF0B042916000BF02
:10121000FFF7E4FC054606E0FFF7E0FC401B022870
:1012200001D9032039E700BF4FF0B0408068C0F318
:1012300080400028F0D0207800F0010098B360686A
:10124000022804D101F074FEA8B9012025E76068E6
:10125000032804D101F0DDFE68B901201DE76068B4
:1012600020B901F0B0FE30B9012016E701F066FEAA
:1012700008B9012011E760684FF0B041896821F09A
:10128000030101434FF0B042916000BFFFF7A6FC9D
:10129000054609E0FFF7A2FC401B41F28831884275
:1012A00002D90320F9E605E001F01AFE6168B0EB0F
:1012B000810FEFD11348006800F00700B04217D942
:1012C0001048006820F0070030430E490860FFF71F
:1012D00085FC054606E0FFF781FC401B022801D98A
:1012E0000320DAE60748006800F00700B042F2D1B8
:1012F00000F010F80549086005480068FFF790FC09
:10130000CBE60000004000580801005830000020E3
:101310002800002010B500F02FF84FF0B041896888
:1013200001F0F0010909034A52F82110B0FBF1F075
:1013300010BD00001C7F000810B5FFF7EBFF4FF059
:10134000B041896801F4E061090A024A12F82110EB
:10135000C84010BD5C7F000810B5FFF7DBFF4FF001
:10136000B041896801F46051C90A024A12F821109B
:10137000C84010BD5C7F00082DE9F0414FF0000827
:10138000002701F0ADFD044601F037FE06461CB112
:101390000C2C35D1012E33D101F00FFEB0B901F084
:1013A0000CFE012806D100BF4FF0B040006800F0ED
:1013B000F00005E000BF3448006800F4706000BF32
:1013C000C0F30320314951F8200015E001F0F5FD8C
:1013D000012806D100BF4FF0B040006800F0F000D7
:1013E00005E000BF2848006800F4706000BFC0F34B
:1013F0000310264951F8200007468CB9B8460FE083
:10140000042C02D1DFF888800AE0082C08D101F012
:1014100089FD012802D1DFF8788001E0DFF87480CF
:1014200001F05EFD0C282BD101F0E7FD0646012EF0
:101430000FD0022E02D0032E0AD101E0144D0AE093
:1014400001F070FD012801D1114D00E0114D02E0C5
:1014500000BF3D4600BF00BF01F0D5FD68434FF01F
:10146000B041C96801F07001012202EB1111B0FB1B
:10147000F1F14FF0B040C06802EB5070B1FBF0F8F2
:101480004046BDE8F0810000940000587C7F0008D1
:101490000024F4000048E8012DE9F047044614B99F
:1014A0000120BDE8F08701F01BFD074601F0A5FD16
:1014B0000646207800F0200020286ED11FB10C2FA6
:1014C00063D1012E61D101F07EFD18B1206A08B907
:1014D0000120E6E74FF0B040A16A006800F0080084
:1014E00028B14FF0B040006800F0F00004E0FD4883
:1014F000006800F47060000981421CD9A06A02F003
:1015000047FA08B10120CCE700BF4FF0B0400068B7
:1015100040F008004FF0B04108600846006820F035
:10152000F000A16A08434FF0B041086000BF606A54
:1015300001F04FFD1BE000BF4FF0B040006840F0ED
:1015400008004FF0B04108600846006820F0F00045
:10155000A16A08434FF0B041086000BF606A01F023
:1015600038FDA06A02F014FA08B1012099E7FFF7EC
:10157000D1FEDD490860DD480068FFF751FB814678
:10158000B9F1000F45D048468BE7206A40B301F01F
:101590000BFDFFF723FB054607E03AE0FFF71EFBD4
:1015A000401B022801D903207BE701F00CFD002835
:1015B000F4D000BF4FF0B040006840F008004FF09A
:1015C000B04108600846006820F0F000A16A0843B6
:1015D0004FF0B041086000BF606A01F0FAFC18E00B
:1015E00000BF4FF0B040006820F001004FF0B04164
:1015F000086000BFFFF7F2FA054606E0FFF7EEFAD3
:10160000401B022801D903204BE701F0DCFC002835
:10161000F4D1207800F0010000285ED0082F03D01C
:101620000C2F08D1032E06D101F082FCC8B36068EC
:10163000B8BB012035E74FF0B040006820F48010BF
:10164000A16808434FF0B041086000BF6068B0F582
:10165000803F02D101F05DFC1CE06068B0F5041F22
:101660000CD100BF4FF0B040006840F400104FF0C4
:10167000B041086000BF01F04CFC0BE000BF4FF030
:10168000B040006820F480304FF0B041086000BFE7
:1016900001F036FC00BF606880B1FFF79FFA054695
:1016A00007E01AE0FFF79AFA401B642801D90320EB
:1016B000F7E601F03DFC0028F4D00EE0FFF78EFACB
:1016C000054606E0FFF78AFA401B642801D903208B
:1016D000E7E601F02DFC0028F4D1207800F00200AC
:1016E000022848D1042F03D00C2F0CD1022E0AD18E
:1016F00001F024FC18B1206908B90120D1E6606925
:1017000001F022FC37E02069E0B100BF4FF0B040AB
:10171000006840F480704FF0B041086000BFFFF7F0
:101720005DFA054606E0FFF759FA401B022801D989
:101730000320B6E601F002FC0028F4D0606901F055
:1017400003FC18E000BF4FF0B040006820F4807048
:101750004FF0B041086000BFFFF740FA054606E0D1
:10176000FFF73CFA401B022801D9032099E601F05B
:10177000E5FB0028F4D1207800F0080008285CD1AF
:10178000A069E0B35748D0F8008008F01001E06984
:10179000884226D008F00200022804D108F0010097
:1017A00008B901207DE608F0010080B101F0E8FBF6
:1017B000FFF714FA054606E0FFF710FA401B112860
:1017C00001D903206DE601F0E7FB0028F4D145487C
:1017D000006820F01000E16908434FF0B041C1F803
:1017E000940000BF3F48006840F001004FF0B04156
:1017F000C1F8940000BFFFF7F1F9054607E00BE0E0
:10180000FFF7ECF9401B112801D9032049E601F04C
:10181000C3FB0028F4D010E001F0B2FBFFF7DEF9C3
:10182000054606E0FFF7DAF9401B112801D903202D
:1018300037E601F0B1FB0028F4D1207800F0040075
:10184000042868D101F01EFB80B9FFF7D3FAFFF737
:10185000C5F9054606E0FFF7C1F9401B022801D98A
:1018600003201EE601F00EFB0028F4D0E068F8B378
:10187000E068852802D0E068052808D11948001FD3
:10188000006840F004004FF0B041C1F89000FFF74D
:10189000A5F905461348001F006840F001004FF00D
:1018A000B041C1F8900008E0FFF798F9401B41F201
:1018B0008831884201D90320F3E501F051FB00286B
:1018C000F2D0E068812802D0E068852824D1FFF7B3
:1018D00085F905460348001F006840F080004FF07E
:1018E000B04106E09400005830000020280000209D
:1018F0002EE0C1F8900008E0FFF770F9401B41F2BC
:101900008831884201D90320CBE57148006800F492
:1019100000600028F0D04FE0FFF760F905466C4802
:10192000006820F080004FF0B041C1F8900008E05E
:10193000FFF754F9401B41F28831884201D9032056
:10194000AFE56348006800F400600028F0D133E0A0
:10195000FFF744F905465E48006820F080004FF02C
:10196000B041C1F8900008E0FFF738F9401B41F2A0
:101970008831884201D9032093E55548006800F476
:1019800000600028F0D1FFF729F9054650480068AB
:1019900020F001004FF0B041C1F8900008E0FFF7DF
:1019A0001DF9401B41F28831884201D9032078E5B6
:1019B00001F0D6FA0028F2D1E06AD0B30C2F66D03D
:1019C000E06A022842D101F00FFBFFF707F9054654
:1019D00006E0FFF703F9401B0A2801D9032060E560
:1019E00001F017FB0028F4D1D4E90C010843A16BE6
:1019F00040EA0120E16B0843216C0843616C084315
:101A00004FF0B041C968334A114008434FF0B0412C
:101A1000C86000BF0846006840F08070086000BFE2
:101A20000846C06840F08050C860FFF7D7F8054608
:101A300007E04AE0FFF7D2F8401B0A2801D903204B
:101A40002FE501F0E6FA0028F4D03EE001F0CCFAF0
:101A50004FF0B040C06820F003004FF0B041C860C4
:101A60000846C0681C4908404FF0B041C860FFF705
:101A7000B5F8054606E0FFF7B1F8401B0A2801D982
:101A800003200EE501F0C5FA0028F4D11DE0E06A5C
:101A9000012800D105E54FF0B040C66806F003010B
:101AA000206B81420FD106F07001606B81420AD138
:101AB00006F4FE41A06BB1EB002F04D106F06041AB
:101AC000606C814201D00120EBE40020E9E40000D9
:101AD000900000588C80C111FFFFFEEE704700009F
:101AE0000346024A02EB81021068704700B10040D1
:101AF00010B50346024800EB8100026010BD0000F3
:101B000000B10040014600BF91F82C00012801D12E
:101B100002207047012081F82C0000BF022081F8CC
:101B20002D0000BFCA200E4A10605320106000BF75
:101B30000B480C38006840F02000094A0C3A10604D
:101B400000BFFF20064A106000BF012081F82D0071
:101B500000BF002081F82C0000BF00BFD9E70000C3
:101B60002428004070B5054604F022FA0446601CA3
:101B700004F040FA70BD000010B504460748006844
:101B800000F0400030B14020044908310860204690
:101B9000FFF7E8FF012084F82D0010BD5428004015
:101BA000014600BF91F82C00012801D102207047A6
:101BB000012081F82C0000BF022081F82D0000BF19
:101BC000CA20114A10605320106000BF0E480C3824
:101BD000006840F080000C4A0C3A10600B48006826
:101BE00040F48020094A106000BFFF20064A1060C0
:101BF00000BF012081F82D0000BF002081F82C00DB
:101C000000BF00BFD3E70000242800408008005830
:101C100010B5044605F018FD10BD000070B504466F
:101C20000E480068216B00EA010505F0010030B1A3
:101C300001200A49083108602046FFF7E9FF05F056
:101C4000020030B102200549083108602046FFF744
:101C500045FF012084F82D0070BD0000542800408D
:101C6000024600BF92F82C00012801D102207047E3
:101C7000012082F82C0000BF022082F82D0000BF56
:101C8000CA20204B18605320186000BFB1F5807F38
:101C900014D11C482030006820F00040194B20333C
:101CA000186018480C38006820F48850154B0C3B1D
:101CB0001860106B20F00100106313E01148283009
:101CC000006820F000400F4B283318600D480C3896
:101CD000006820F408500B4B0C3B1860106B20F090
:101CE0000200106300BFFF20064B186000BF0120F8
:101CF00082F82D0000BF002082F82C0000BF00BF3A
:101D0000B5E700002428004070B504460125002CEA
:101D10005AD094F82D0028B9002084F82C002046D1
:101D200000F058F8022084F82D0000BFCA2027498F
:101D300008605320086000BF204601F063FE05469E
:101D4000CDBB22480C380068214908401F490C3996
:101D50000860216960680843A16908431B490C3980
:101D60000968084319490C3908602089E16841EA8B
:101D70000040164914390860D4E9090108431349A1
:101D80001839096821F4F8510843104918390860D6
:101D9000204601F05FFE05466DB9D4E907100843FF
:101DA0006169084309490C39096821F06041084319
:101DB00006490C39086000BFFF200449086000BFD5
:101DC00015B9012084F82D00284670BD2428004054
:101DD000BFFF8FFB10B590B00446382102A8FEF774
:101DE00011FA1B492068884230D1801302900012FA
:101DF0000F9002A8FFF732F808B1FEF7F4FA00BF1F
:101E00001448006840F400404FF0B041C1F8900021
:101E100000BF4FF48060896D01434FF0B04291657F
:101E20001146896D0140019100BF00BF002211469B
:101E30000220FEF72FFF0220FEF718FF00221146B6
:101E40002A20FEF727FF2A20FEF710FF10B010BD52
:101E500000280040900000582DE9F04305460C464C
:101E600017464FF0000800BF95F82C00012802D15A
:101E70000220BDE8F083012085F82C0000BF02207D
:101E800085F82D006748006800F44076B6F5807F3D
:101E900049D05FBB63480C30006800F0400000B1DF
:101EA00002E00020E07000BF206A00B900E000BF3F
:101EB000207801F099FD4FEA0049607801F094FD27
:101EC00049EA0029A07801F08FFD49EA0009E0788D
:101ED00049EA805994F8240001F086FD49EA00603F
:101EE000216A0843616940EA01081CE04D480C3052
:101EF000006800F0400000B102E00020E07000BF88
:101F000020780004617840EA0120A1780843E17854
:101F100040EA815094F8241040EA0160216A0843A5
:101F2000616940EA010800BFCA203E4918310860D3
:101F30005320086000BFA06AB0F5807F2ED13948D9
:101F40000C30006820F4885036490C3108600120BC
:101F5000344950310860B6F5807F06D1D4E90601D6
:101F6000084330493831086007E02E483430C0F863
:101F700000802C493831A06908602A4964316068C2
:101F80000860286B40F00100286326480C30006888
:101F900040F4885023490C3108602DE021480C3072
:101FA000006820F408501F490C31086002201D49C8
:101FB00050310860B6F5807F06D1D4E906010843A8
:101FC00018494031086007E016483C30C0F80080EE
:101FD00014494031A069086012496831606808609E
:101FE000286B40F0020028630E480C30006840F473
:101FF00008500C490C3108600B48006840F4003070
:102000000949086000BFFF2006491831086000BF79
:10201000012085F82D0000BF002085F82C0000BFAE
:1020200000BF26E70C2800408008005870B5054620
:102030000C48006860F0A0000A490860FEF7CEFD79
:10204000044607E0FEF7CAFD001BB0F57A7F01D910
:10205000032070BD0348006800F020000028F1D084
:102060000020F6E70C2800404FF0E020006940F027
:1020700002004FF0E02108617047000070B505468E
:102080000C4614B1012C0BD104E0802006490968EC
:10209000884706E04FF4807003490968884700E0EC
:1020A00000BF00BF70BD00004000002010B5044616
:1020B000402002490968884710BD00004000002008
:1020C0002DE9F04704468A4616461F46B046A079D9
:1020D000012837D100BF6079012802D10220BDE874
:1020E000F0870120607100BF204602F0A7FF00F0DA
:1020F000D1FE5146204602F05FFF0021204602F04B
:102100005BFF4FF0000909E04146204602F010FF56
:1021100008F1010809F101001FFA80F9B945F3DB64
:1021200000F0CCFE204602F0A1FFA06808B1012516
:1021300000E000250120A07100BF0020607100BFF9
:102140002846CCE70220CAE72DE9F04704460D46B1
:1021500090469946A07901283AD100BF60790128BC
:1021600002D10220BDE8F0870120607100BF204647
:1021700002F064FF842D01D0942D02D10120207142
:1021800001E00020207100F085FE2946204602F083
:1021900013FF002706E018F80710204602F00CFF96
:1021A000781C87B24F45F6DB00F088FE842D02D004
:1021B000204602F05BFFA06808B1012600E000267F
:1021C0000120A07100BF0020607100BF3046C9E748
:1021D0000220C7E710B50446202002490968884755
:1021E00010BD00004000002010B504461020024938
:1021F0000968884710BD00004000002038B505463A
:102200000020009002236A4612212846FFF758FF5B
:102210009DF800409DF8010040EA042404F001000C
:1022200010B1284600F06CF9C4F3400010B1284604
:1022300000F048F9C4F3800010B1284600F0A4F87B
:10224000C4F3C00010B1284600F050F9C4F30010E8
:1022500010B12846FFF7C8FFC4F3401010B128465C
:10226000FFF7B8FFC4F3801010B12846FFF71EFF38
:10227000C4F3C01058B1C4F3002020B10121284696
:10228000FFF7FCFE03E000212846FFF7F7FEC4F34A
:10229000402010B1284600F01FF902236A46194673
:1022A0002846FFF751FF38BD38B5044614B901255B
:1022B000284638BD0025A07920B90020607120464D
:1022C00000F048F80220A07100F0AAFE1D48006846
:1022D000C0EBC000C0F34C40642110FB01F0009043
:1022E00000BF009818B901250120A06009E00098FE
:1022F000401E009000BF14480068C0F380300028E2
:10230000EFD100BF00F0DAFD4FF480500F490968AB
:1023100001430E4A116000BF401000F0C5FD00BF30
:102320004FF400600A49086000BF35B9206802F028
:10233000EBFD012020710020A0600120A071284643
:10234000B7E70000300000209400005890080058C3
:102350001804005838B5044601204FF0B041496ECA
:1023600001434FF0B04251661146496E0140009161
:1023700000BF00BF002211463220FEF78BFC322046
:10238000FEF774FC38BD000010B504460420024975
:102390000968884710BD0000400000202DE9F04783
:1023A00004468A4616461F46B046A07901283BD10E
:1023B00000BF6079012802D10220BDE8F08701202A
:1023C000607100BF204602F039FE00F063FD1E215F
:1023D000204602F0F1FD5146204602F0EDFD0021BD
:1023E000204602F0E9FD4FF0000909E04146204691
:1023F00002F09EFD08F1010809F101001FFA80F9C1
:10240000B945F3DB00F05AFD204602F02FFEA0682C
:1024100008B1012500E000250120A07100BF0020C7
:10242000607100BF2846C8E70220C6E72DE9F047E3
:1024300004460D4617469846B946A07901283FD173
:1024400000BF6079012802D10220BDE8F087012099
:10245000607100BF204602F0F1FD00F01BFD1D2160
:10246000204602F0A9FD290A204602F0A5FDE9B2A6
:10247000204602F0A1FD0021204602F09DFD4FF014
:10248000000A09E04946204602F052FD09F101091F
:102490000AF101001FFA80FAC245F3DB00F00EFDDD
:1024A000204602F0E3FDA06808B1012600E0002606
:1024B0000120A07100BF0020607100BF3046C4E75A
:1024C0000220C2E710B50446022002490968884785
:1024D00010BD00004000002010B504464FF400700D
:1024E00001490968884710BD4000002010B5044626
:1024F000082002490968884710BD000040000020FC
:1025000010B50446012002490968884710BD000043
:10251000400000202DE9F0470446894617469846BA
:10252000A079012832D100BF6079012802D10220B0
:10253000BDE8F0870120607100BF204602F07EFDFB
:1025400000F0A8FC0E21204602F036FD4946204648
:1025500002F032FD002605E0B95D204602F02CFDB8
:10256000701C86B24645F7DB00F0A8FC204602F05E
:102570007DFDA06808B1012500E000250120A071C3
:1025800000BF0020607100BF2846D1E70220CFE7DE
:102590002DE9F04704460D4690469946A07901285A
:1025A00039D100BF6079012802D10220BDE8F0874F
:1025B0000120607100BF0220A071204602F03EFDA4
:1025C00000F068FC0D21204602F0F6FC290A2046A6
:1025D00002F0F2FCE9B2204602F0EEFC002706E031
:1025E00018F80710204602F0E7FC781C87B24F4528
:1025F000F6DB00F063FC204602F038FDA06808B16D
:10260000012600E000260120A07100BF00206071BB
:1026100000BF3046CAE70220C8E74FF0E02000695B
:1026200020F002004FF0E0210861704770B50446C9
:1026300000BF94F88000012801D1022070BD012064
:1026400084F8800000BF2420C4F884002068056856
:102650002068006820F001002168086045F00055FE
:102660004FF00050606620680560204603F07EFF52
:102670002020C4F8840000BF002084F8800000BF40
:1026800000BFDBE7014600BF91F88000012801D1BF
:1026900002207047012081F8800000BF08680068B0
:1026A00040F002000A68106000BF002081F880003E
:1026B00000BF00BFEDE77047704770B504460D4698
:1026C00000BF94F88000012801D1022070BD0120D4
:1026D00084F8800000BF2420C4F8840020680668C5
:1026E0002068006820F00100216808602068806888
:1026F00020F06060284321688860204603F036FFA0
:10270000206806602020C4F8840000BF002084F800
:10271000800000BF00BFD9E770B504460D4600BF7A
:1027200094F88000012801D1022070BD012084F8B6
:10273000800000BF2420C4F8840020680668206858
:10274000006820F00100216808602068806820F09F
:102750006040284321688860204603F007FF206816
:1027600006602020C4F8840000BF002084F88000A8
:1027700000BF00BFD9E777B581B00446002500BF90
:1027800094F88000012802D1022004B070BD01201D
:1027900084F8800000BF2420C4F88400206800680A
:1027A00020F00100216808602068806820F4401053
:1027B0000299084321688860029820B92046DDE923
:1027C000021203F00BFF2068006840F0010021684E
:1027D0000860FEF703FA06466FF07E40334600229B
:1027E0004FF480010090204604F070FC08B10325EE
:1027F00002E02020C4F8840000BF002084F880009C
:1028000000BF2846C1E77047704770472DE9F04781
:1028100004462068C569206806682068876840F615
:102820000F0005EA0009B9F1000F0FD105F02000F3
:1028300060B106F0200010B907F0805030B1206F71
:1028400010B12046216F8847BDE8F087B9F1000F2D
:102850007ED0AD48384018B9AC4830400028F7D099
:1028600005F0010058B106F4807040B101202168E4
:102870000862D4F88C0040F00100C4F88C0005F028
:10288000020058B107F0010040B10220216808623F
:10289000D4F88C0040F00400C4F88C0005F004006B
:1028A00058B107F0010040B1042021680862D4F853
:1028B0008C0040F00200C4F88C0005F0080070B1F4
:1028C00006F0200010B99048384040B10820216837
:1028D0000862D4F88C0040F00800C4F88C0005F4BD
:1028E000006060B106F0806048B14FF4006021687C
:1028F0000862D4F88C0040F02000C4F88C00D4F8B2
:102900008C00002844D005F0200050B106F02000D3
:1029100010B907F0805020B1206F10B12046216F10
:102920008847D4F88CA02068806800F040004028D8
:1029300002D00AF0280028B3204603F077FF206871
:10294000806800F04000402818D12068806800E0CE
:102950001FE020F0400021688860E06F50B16C48B3
:10296000E16F8863E06FFDF7BCFD88B1E06F816BBC
:1029700088470DE02046FFF748FF09E02046FFF7B3
:1029800044FF05E02046FFF740FF0020C4F88C001C
:102990005AE7E06E012879D105F01000002875D0C3
:1029A00006F01000002871D010202168086220680D
:1029B000806800F0400040283DD1E06F006840682A
:1029C0001FFA80F8B8F1000F34D0B4F85C0040452D
:1029D00030DDA4F85E80E06F0068006800F0200041
:1029E000F8B92068006820F48070216808602068C9
:1029F000806820F00100216888602068806820F0ED
:102A00004000216888602020C4F888000020E0662B
:102A10002068006820F0100021680860E06FFDF772
:102A20001DFDB4F85C00B4F85E20801A81B2204627
:102A3000FFF741FE08E734F85C0F6188401A1FFA7F
:102A400080F860885C3CF8B1B8F1000F1CD02068B9
:102A5000006820F4907021680860206880682A4926
:102A6000C9430840216888602020C4F888000020FD
:102A7000E06620672068006820F010002168086088
:102A800041462046FFF717FEDEE6FFE705F480101B
:102A900050B107F4800038B14FF48010216808620B
:102AA0002046FFF7B1FECFE605F0800058B106F0F2
:102AB000800010B907F4000028B1606F10B1204603
:102AC000616F8847C0E605F0400030B106F0400075
:102AD00018B1204603F0C8FEB6E605F4000030B198
:102AE00006F0804018B12046FFF78DFEACE605F0F9
:102AF000807030B106F0004018B12046FFF7DCFDD1
:102B0000A2E600BFA0E600000100001020010004C2
:102B10007167000810B504460CB9012010BDA0690A
:102B200000B100E000BFD4F8840028B9002084F888
:102B30008000204600F048F82420C4F88400206873
:102B4000006820F0010021680860204604F0A2F827
:102B5000012800D1E2E7A06A10B1204603F051FD40
:102B60002068406820F490402168486020688068B0
:102B700020F02A00216888602068006840F0010089
:102B800021680860204603F0B8FDC7E710B5044689
:102B90000C492068884214D14FF400304FF0B04106
:102BA000896D81434FF0B042916500BF0C214FF019
:102BB0009040FDF7B9FEA06FFDF7EEFC2520FEF773
:102BC00033F810BD0044004010B594B00446142101
:102BD0000FA8FDF717FB382101A8FDF713FB3149BA
:102BE000206888425CD1022001902F48039001A800
:102BF000FEF734F908B1FDF7F6FB4FF400304FF063
:102C0000B041896D01434FF0B04291651146896D25
:102C10000140009100BF00BF01201146C96C014373
:102C2000D1641146C96C0140009100BF00BF0C2067
:102C30000F90022010900020119003201290072086
:102C400013900FA94FF09040FDF7F0FE1748184978
:102C50000860142048601021154881600021C1607F
:102C600080210161002141618161C1610162FDF743
:102C700083FD08B1FDF7B7FB10210D48FDF773FC8C
:102C800008B1FDF7B0FB00BF0948A067846200BF30
:102C9000002202212520FDF7FDFF2520FDF7E6FF9C
:102CA00014B010BD0044004004000C005800024065
:102CB0004C01002070B504460D461646D4F8880035
:102CC000202816D105B10EB9012070BD00BF94F8BF
:102CD0008000012801D10220F7E7012084F880005C
:102CE00000BF0020E06632462946204604F066F91F
:102CF000EBE70220E9E7000010B504460A49206826
:102D0000884210D10948006840B1D4F88C0028B935
:102D1000002201210648054B1B68984701220449FF
:102D20002046FFF7C7FF10BD0044004014000020FC
:102D30000C00002070B504460E461546D4F88400F9
:102D400020284BD106B10DB9012070BD00BF94F809
:102D50008000012801D10220F7E7012084F88000DB
:102D600000BF44F8506FA580E5800020E06321207B
:102D70006063A06A503C08B31948A16FC862194843
:102D8000A16F08631848A16F48630020A16F886392
:102D9000236803F128022B46216DA06FFDF75CFD2F
:102DA00060B11020C4F88C0000BF002084F88000BF
:102DB00000BF2020C4F884000120C6E7402021681D
:102DC000086200BF002084F8800000BF206880688F
:102DD00040F08000216888600020B6E70220B4E758
:102DE000E76700081F6800088967000810B50446F7
:102DF00004492068884203D10020034909688847B4
:102E000010BD00000044004010000020704700BFCB
:102E1000FEE708B54FF0B041896C01434FF0B04276
:102E200091641146896C0140009100BF08BD08B54E
:102E30004FF0B041C96C01434FF0B042D16411462C
:102E4000C96C0140009100BF08BD08B54FF0B0410A
:102E5000C96C01434FF0B042D1641146C96C0140C6
:102E6000009100BF08BD08B54FF0B041C96C0143E7
:102E70004FF0B042D1641146C96C0140009100BFCF
:102E800008BD000002480068C0F300207047000041
:102E9000000400580348006820F40040014908601D
:102EA00070470000900400580349096821F400614C
:102EB0000143014A11607047080400580348006844
:102EC00040F4004001490860704700009004005839
:102ED000024800680007000E704700000801005813
:102EE0004FF0B040806800F00C0070470146034886
:102EF0000068084040EA0140704700008800005820
:102F00004FF0B040006820F400104FF0B04108606E
:102F100070474FF0B040006840F480304FF0B0414F
:102F2000086070474FF0B0400068C0F30050704731
:102F30004FF0B0400068C0F3404070474FF0B040E1
:102F40000068C0F3802070474FF0B041496821F01D
:102F5000FE4141EA00614FF0B0425160704700000D
:102F600002480068C0F3400070470000900000581D
:102F700002480068C0F3400070470000900000580D
:102F80000448006820F001004FF0B041C1F89400FF
:102F9000704700009400005802480068C0F34000E9
:102FA00070470000940000584FF0B040006840F0B7
:102FB00001004FF0B041086070474FF0B04000682A
:102FC000C0F3C00070474FF0B0400068C0F340004D
:102FD00070474FF0B041496821F47F4141EA002138
:102FE0004FF0B042516070474FF0B040006820F0A1
:102FF00080704FF0B041086070474FF0B040C0683B
:1030000000F0030070474FF0B040C068C0F30620E6
:1030100070474FF0B0400068C0F340607047000058
:103020000448006820F400404FF0B041C1F894001B
:103030007047000094000058084909684FF47F2247
:1030400002EA101291434FF47F2202EA0012114368
:103050004FF0B042C2F88810704700008800005856
:1030600005490968020C1204914341EA00414FF0FE
:10307000B042C2F8881070478800005805490968B6
:1030800021EA104182B211434FF0B042C2F88810D9
:10309000704700008800005810B50420FFF7B9FE03
:1030A0000120FFF7B6FE002202210F20FDF7F2FDFE
:1030B0000F20FDF7DBFD10BD00B585B0142168467B
:1030C000FDF7A0F80220FFF7B2FE0420FFF7AFFEE5
:1030D0000120FFF7ACFE00224FF43A411948FDF7FA
:1030E00077FD4FF40A4000900120019000200290EB
:1030F0000220039069461348FDF798FC03200090D6
:10310000114801900120029069464FF09040FDF770
:103110008DFC4FF44050009001200190002002905F
:103120000320039069460748FDF780FC402000908B
:10313000054801900120029069460448FDF776FC9D
:1031400005B000BD00040048000021100008004840
:1031500000B58BB02C216846FDF754F81748184984
:1031600008601F2116488160002101614161816171
:103170004FF08041C161002101624FF480714162D2
:10318000FEF7C2FD08B1FDF72EF90D48FEF708FD68
:1031900008B1FDF728F900200790019005904FF045
:1031A0000050069040150A90002269460448FEF738
:1031B00053FE08B1FDF717F90BB000BD0028004021
:1031C0007800002010B50820044908600846FFF781
:1031D0006BF808B1FDF707F910BD0000B000002042
:1031E00010B502F067FE02F035FD10BD10B54FF0CE
:1031F000FF3004F00BF910BD10B5184818490860ED
:103200004FF4E1304860002115488160C1600161E0
:103210000C21416100218161C16101624162002094
:103220000F4988620846FFF775FC08B1FDF7DBF827
:1032300000210B48FFF770FA08B1FDF7D4F8002120
:103240000748FFF73AFA08B1FDF7CDF80448FFF751
:10325000EDF908B1FDF7C7F810BD000000440040CB
:10326000BC00002000BFFEE700BFFEE72DE9FC41E7
:1032700007460C4615461E4600BF2DA3012200211D
:10328000104603F08BFF00BF00BF2CA301220021DA
:103290001046CDE9005603F081FF00BF30480670AC
:1032A000002030490870FF212F48FCF7ABFF2F4862
:1032B00004800088FF2805DC2C48028839462A480B
:1032C000FCF787FF68B22A49087000BF29A30122D2
:1032D00000211046009403F061FF00BF4FF000088A
:1032E0002148807800062049C97840EA01401E49FB
:1032F000097940EA01201C49497940EA010800BFE8
:1033000021A3002211460120CDF8008003F046FFE2
:1033100000BF00BF08A300221146012003F03EFFBA
:1033200000BF0021012004F035F9BDE8FC81000058
:103330004F6E5278446F6E650A0D000052737369C8
:1033400056616C75653D25642064426D2C20536E7A
:103350007256616C75653D256464420A0D0000007B
:103360001D00002018000020C80100201A000020C5
:103370001C0000207061796C6F61642E2073697A83
:10338000653D2564200A0D00636F756E74207661BB
:103390006C75653A2564200A0D00000010B500BF69
:1033A00007A301220021104603F0F8FE00BF02200F
:1033B000064908700021012004F0ECF810BD00005F
:1033C0004F6E52784572726F720A0D00180000201D
:1033D00010B500BF06A301220021104603F0DEFE57
:1033E00000BF012006490870002104F0D3F810BD89
:1033F0004F6E527854696D656F75740A0D00000048
:103400001800002010B500BF07A3012200211046BC
:1034100003F0C4FE00BF032006490870002101200C
:1034200004F0B8F810BD00004F6E5478446F6E651C
:103430000A0D00001800002010B500BF07A30122EC
:103440000021104603F0AAFE00BF042007490870BF
:103450000021012004F09EF810BD00004F6E54784A
:1034600054696D656F75740A0D0000001800002026
:1034700010B504464FF400710548FDF79FFB4FF46B
:1034800000610348FDF79AFB024804F063F910BDA0
:1034900000040048C8030020704710B5FFF7BDF8CE
:1034A00001210020FDF7B0FC10BD000010B5FFF7B2
:1034B000B4F800BF01200349086000BFFDF772FCAB
:1034C00010BD000088040058704710B5FEF7CCFD11
:1034D00010BD10B5FEF7C8FD04F09CFC10BD704790
:1034E00010B58E49C86A80478D48007805286FD28C
:1034F000DFE800F003CECFC0F3008A48007801284F
:1035000068D189480088002839DD092287A18A48C6
:10351000FCF78AFE002833D1884804F06BF90022BA
:103520004FF400718648FDF753FB4FF40061844867
:10353000FDF744FB7949C86D804700F1C804204677
:10354000FDF7EDF900BF7FA301220021104603F033
:1035500025FE00BF00BF7EA301220021104603F01C
:103560001DFE00BF7F4880A10A6802604A68426071
:103570000989018169484021826A7A48904778E048
:103580000A2279A16C48FCF74FFE80B900206549FA
:10359000087000BF77A301220021104603F0FEFD52
:1035A00000BF5E48416B40F6B830884761E00120BB
:1035B0005C49087000BF74A301220021104603F08B
:1035C000EDFD00BF5548416B40F6B830884750E0EC
:1035D000A0E0FFE75448008800284ADD0A2262A1E3
:1035E0005548FCF721FE002833D1544804F002F975
:1035F00000224FF400615248FDF7EAFA4FF40071DF
:103600004F48FDF7DBFA4549C86D804700F1C80413
:103610002046FDF784F900BF60A301220021104677
:1036200003F0BCFD00BF00BF5FA3012200211046D4
:1036300003F0B4FD00BF4B483CA10A6802604A6831
:103640004260097A017235484021826A45489047B4
:103650000FE001203349087000BF4BA30122002175
:10366000104603F09BFD00BF2C48416B40F6B8307C
:10367000884750E000BF51A301220021104603F00B
:103680008DFD00BF2548416B40F6B830884742E0C9
:1036900000BF24480078012820D12049C86D804708
:1036A000C8304949096844182046FDF738F900BF79
:1036B00027A301220021104603F070FD00BF294816
:1036C00029A10A6802604A68426009890181134899
:1036D0004021826A234890470DE00DE000BF25A3FA
:1036E00001220021104603F059FD00BF0B48416B39
:1036F00040F6B83088470EE000BF1EA3012200212B
:10370000104603F04BFD00BF0448416B40F6B83053
:10371000884700E000BF00BF10BD0000C47F000864
:10372000180000201E0000201A000020736C617633
:10373000652061636B000000C8010020C803002001
:10374000000400482E2E2E50494E470A0D0000005E
:103750004D61737465722054782073746172740AB9
:103760000D000000C7020020736C61766520726551
:1037700063760000536C6176652052782073746123
:1037800072740A0D000000004D617374657220525E
:10379000782073746172740A0D0000002E2E2E5072
:1037A0004F4E470A0D000000536C6176652020548F
:1037B000782073746172740A0D00000052782073CF
:1037C000746172740A0D00002000002010B50446D8
:1037D00034B1012C14D0022C22D0032C40D12FE084
:1037E000002208212048FDF7F3F9002210211E488D
:1037F000FDF7EEF9002220211B48FDF7E9F930E042
:10380000012208211848FDF7E3F90122102116488A
:10381000FDF7DEF9002220211348FDF7D9F920E059
:10382000012208211048FDF7D3F9012210210E488A
:10383000FDF7CEF9012220210B48FDF7C9F910E070
:10384000012208210848FDF7C3F90022102106488B
:10385000FDF7BEF9012220210348FDF7B9F900E088
:1038600000BF00BF002010BD0008004800207047C6
:103870000A20704700B585B014216846FCF7C2FCE9
:103880000420FFF7F0FA10200090012001900020A2
:1038900002900320039069461048FDF7C7F82020E6
:1038A000009069460D48FDF7C1F808200090694670
:1038B0000A48FDF7BBF8002220210848FDF788F9E7
:1038C000002210210548FDF783F900220821034852
:1038D000FDF77EF9002005B000BD0000000800489B
:1038E0000120704701207047F0B587B004460E46AE
:1038F000254903C9CDE905012349083103C9CDE9AB
:10390000030121481030D0E900128068CDE900128F
:1039100002900027B6F5007F0DD1002008E005A930
:1039200031F81010A14202D35DF8207002E0401C73
:103930000328F4D30DE0002008E003A931F81010AB
:10394000A14202D35DF8207002E0401C0328F4D3AA
:1039500000BF0E48006820F0070038430B4908609C
:10396000FDF73CF9054607E0FDF738F9401B022852
:1039700002D9032007B0F0BD0448006800F007003A
:10398000B842F1D10020F5E7D87E00080040005889
:103990002DE9F04104460D48C4F3031150F82160AD
:1039A000FFF796FAC0F30310094951F82000B6FB5F
:1039B000F0F5FDF717FA80460648B5FBF0F74146EB
:1039C0003846FFF791FFBDE8F08100007C7F0008DA
:1039D0001C7F000840420F0010B50248FEF71EF998
:1039E00010BD00007800002002460023114603E0CD
:1039F0005B1CA1F10A00C1B20A29F9D2180741EAF9
:103A00001060704770B5054600261148006800F048
:103A10004000D0B90E48006840F080000C490860B2
:103A2000FDF7DCF8044609E0FDF7D8F8001BB0F517
:103A30007A7F03D90326032085F82D000448006807
:103A400000F0400008B9032EEED1304670BD0000F2
:103A50000C28004070B5044600251748006820F087
:103A600080001549086014480C30006800F0200000
:103A700040B92046FEF7DAFAE0B1032084F82D00C1
:103A8000032517E00C480C30006820F020000A499C
:103A90000C3108602046FEF7C9FA18B1032084F8FB
:103AA0002D00032504480C30006840F02000024936
:103AB0000C310860284670BD0C28004001460120EA
:103AC0007047000002460AB91F20704700210BE032
:103AD000074850F83100904204D9054800EBC10076
:103AE0000079F2E7481CC1B21629F1D300BFFEE706
:103AF00040800008F0B50646DDE905450BB9082011
:103B000000E0002000EBC2001830012D01D1022797
:103B100000E00027274400EBC700F0BD014600206D
:103B20000B2922D2DFE801F0060C12181B1D1F2101
:103B3000090F150041F6846017E042F6B10014E069
:103B400043F6095011E045F261100EE047F61220ED
:103B50000BE04AF2C32008E04FF2244005E004489D
:103B600003E0044801E0044800BF00BF70470000C4
:103B700048E8010090D0030020A107002DE9F04F94
:103B8000044617461D46DDE909C807F104094FF050
:103B9000000A052901D0062902D10C2D00DA0C25D6
:103BA0001CB90B2905D00C2903D0012C03D10C29F9
:103BB00001D14FF0010A0B9808B1102000E000205D
:103BC00000EBC8004FF0040B0BFB1100BCF1000F21
:103BD00002D04FF0000B01E04FF0140B00EB0B0391
:103BE000062901D88A0007E00833BAF1010F02D193
:103BF000881E820000E08A00002B00DA002398185B
:103C0000401E90FBF2F000FB095000F10C06062963
:103C100000D8B61CB000401CA1F1020B4FF0010E01
:103C20000EFA0BFE00FB0EF0BDE8F08F10B501F0B0
:103C3000C3FA042804D0052804D0072806D103E0DD
:103C4000022010BD0120FCE70320FAE70020F8E77E
:103C500010B501F01EFBC01C10BD000038B50446B5
:103C60001F48046000201F494870486088601E4853
:103C700001F07CFB002000F03DFB01F0DFFD0021A6
:103C8000084601F0E5FB04220021012001F048FF75
:103C900000231A464FF6FF71084601F023FC01F09D
:103CA00063F800BF0020114B0246411E00901048EF
:103CB00003F08CFC00BF00BF00200E4B0246411EEB
:103CC00000900D4803F082FC00BF00BF084803F0DD
:103CD00091FD00BF00BF084803F08CFD00BF38BD58
:103CE00048000020E0040020B53F0008E93F00083C
:103CF00038050020C93F00085005002038B583482A
:103D0000B0F8540020287AD00CDC042878D004DCE9
:103D1000012812D0022874D123E0082872D010287C
:103D2000F9D1D7E0402871D080286DD0B0F5807FE0
:103D30006BD0B0F5007FEED19AE000BF744803F07D
:103D400059FD00BF002001F063FE7248006838B1E1
:103D500070480068006818B16E49096808688047B3
:103D6000D1E000BF6C4803F045FD00BF67484078D4
:103D700090B9002001F04CFE002140F6021001F045
:103D80004DFF40F6441001F03BFB40F00204214699
:103D900040F6441001F042FFFF2269465F4801F0FF
:103DA00061FA5A48243001F00DFA5A48006828B3E5
:103DB00058480068806808B3544890F824000128E7
:103DC0000CD1524890F9313090F9302051480068B8
:103DD0009DF8001084685148A0470EE04B4890F8C9
:103DE0002C0043B2494890F929204A4800689DF8C0
:103DF000001084684948A04700BF00BF83E06AE024
:103E000066E07FE065E001E012E021E03F484078B5
:103E100010B9002001F0FCFD3E48006838B13D4873
:103E20000068006918B13B490968086980476AE081
:103E3000002001F0EDFD3748006840B135480068CA
:103E4000806920B1334800688169002088475AE0C2
:103E5000002001F0DDFD2F48006840B12D480068CA
:103E6000806920B12B4800688169012088474AE0B9
:103E700001F0A2F9042813D100BF254803F0BAFCD1
:103E800000BF002001F0C4FD22480068F8B12148BD
:103E900000684068D8B11F4909684868804716E043
:103EA00001F08AF9052812D100BF1B4803F0A2FCDB
:103EB00000BF002001F0ACFD1648006838B115487D
:103EC0000068C06818B113490968C86880471AE0DB
:103ED00019E018E017E000BF0F4803F08BFC00BFAB
:103EE0000A48407810B9002001F092FD09480068A6
:103EF00038B108480068C06818B106490968C86840
:103F0000804700E000BF00BF38BD0000E004002093
:103F1000380500204800002050050020E003002064
:103F20002DE9F04F8BB007460C4615461E464FF064
:103F300001084FF000094FF0000A00F025FF0020B3
:103F400000F0A8F9384600F081F90120002106911F
:103F50000791CDE9081002910391049103200B46CB
:103F60004FF41672CDE9004005912146002000F083
:103F7000E3F9002000F06EF8FFF76AFE8346FCF7D5
:103F8000CEFC03F043FB824608E0002000F05CF822
:103F90008146A94502DD4FF0000804E0504603F0D9
:103FA00041FBB042F1D300BF00F0EEFE40460BB043
:103FB000BDE8F08F10B504460248A0F85440FFF762
:103FC0009DFE10BDE004002010B5044605480068C1
:103FD00038B104480068C06818B102490968C86867
:103FE000804710BD4800002010B504460548006811
:103FF00038B104480068406818B102490968486847
:10400000804710BD4800002010B50024012000F0BA
:1040100041F900231A461946184601F063FA01F0E7
:104020003CF90446204610BD10B50446204601F078
:10403000E7F910BD70B504460D46164632462946CE
:10404000204601F0EBF970BD10B5044601F05AF9B5
:1040500010BD000010B5044600231A464FF6FF714C
:10406000084601F03FFA54B100BF21460E4803F064
:1040700055FB00BF00BF0C4803F06CFB00BF0B49B1
:1040800091F85600002101F0E3FC0848407801282F
:1040900004D16FF07F4001F037FC04E003498968E8
:1040A000880101F031FC10BD50050020E004002023
:1040B00010B5044600231A464FF6FF71084601F07A
:1040C00011FA54B100BF21460E4803F027FB00BF90
:1040D00000BF0C4803F03EFB00BF0B4991F85600AF
:1040E000002101F0B5FC08484078012804D16FF0A8
:1040F0007F4001F023FC04E003498968880101F056
:104100001DFC10BD50050020E004002070B58AB0F1
:1041100006460C4600231A4640F20121084601F0EB
:10412000E1F9484991F85600012101F091FC454818
:10413000007888B1012804D0022818D0032870D153
:1041400023E04048C4770E3001F0D4FA0022214623
:10415000304601F071F965E03A4884750E3001F09F
:10416000C9FA00222146304601F066F95AE00220E1
:1041700034498873084684760E3001F0BBFA002279
:104180002146304601F058F94CE0242101A8FCF703
:1041900039F82246314601A803F086FC022029495D
:1041A0008873601CC1B2274881760E3001F0A2FAF4
:1041B0002448806C642810D10021F12000F05AFEC0
:1041C0000021F02000F056FE7021F32000F052FE96
:1041D0001D21F22000F04EFE0FE00021F12000F042
:1041E00049FE0021F02000F045FEE121F32000F01F
:1041F00041FE0421F22000F03DFE022000EBC40548
:10420000290AF42000F036FEE9B2F52000F032FE73
:10421000601CC1B26FF07F4201A801F00DF901E00E
:10422000FFE700BF00BF00BF06484168064803F033
:1042300075FA00BF00BF044803F08CFA00BF0AB053
:1042400070BD0000E00400203805002010B50446D1
:10425000204601F005FB10BD70B505460C46012D4A
:1042600007D10A4804700A48C4770E3001F042FAB8
:104270000AE00748407D012806D10448047004483C
:1042800084750E3001F036FA70BD00004400002045
:10429000E004002010B504461548047034B1012C28
:1042A0000BD0032C1AD0042C1CD000BF002001F02E
:1042B000A3FA00210E48417318E0012001F09CFA96
:1042C0000B48407B0A49097B884206D00848017B9D
:1042D00041730146487B00F00DF807E0022001F031
:1042E0008BFA03E0002001F087FA00BF00BF10BD89
:1042F000E004002010B504460E4804734473012006
:10430000FFF7C8FF012C0AD134214FF4E86001F017
:1043100085FC442140F2417001F080FC09E0142149
:104320004FF4E86001F07AFC242140F2417001F082
:1043300075FC10BDE00400202DE9F04F85B08246E9
:104340000E4614469B46DDE910890F9FC549179814
:1043500048701798012801D14FF00008B9F1010FFA
:1043600003D1C1491298087002E0FF20BE490870CD
:10437000BAF1000F7ED0BAF1010F7CD0BAF1040F70
:104380007AD1012001F05AFB0020B64981F83800AB
:104390000846C463092180F844104FF44871016451
:1043A0003046FFF78FFB0146AE4880F845100020ED
:1043B000AC4988734FF6FF7000EAC701A948018233
:1043C000002181741021C174002101754175A64836
:1043D0000178A44881750121C1750021017604206E
:1043E000FFF758FF9F48383001F0C6F89D480E305F
:1043F00001F080F99DA103C9CDE9030103A801F0F3
:104400003DFB40F2FF1001F0DDFB40F6B800FFF786
:104410000BFE054625F01005294640F6B80000F0D1
:1044200029FD042140F6B90000F024FD40F69B0070
:10443000FFF7FAFD054625F01C0545F0080140F69A
:104440009B0000F017FD40F2D160FFF7EDFD05463F
:1044500025F0180545F0180140F2D16000F00AFD82
:1044600040F2AC60FFF7E0FD054625F0700545F031
:10447000500102E00FE06DE0EFE040F2AC6000F0D0
:10448000F9FC4FEAC8004FF47A714843B0FBF4F0EE
:1044900074498860E2E0002001F0D0FA0020714900
:1044A00081F838000846C4630B2180F84410304678
:1044B000FFF708FB01466B4880F84510002069496A
:1044C00088734FF6FF7000EAC70166480182042135
:1044D00081741821C1740021017589F001014175B1
:1044E000614801785F4881751398012803D1F22152
:1044F0005C48C17502E001215A48C1750121594843
:10450000017600F041FC574991F8381009B10121BA
:1045100000E000210846FFF7BDFE5248383001F0A8
:104520002BF850480E3001F0E5F852A103C9CDE94F
:10453000010101A801F0A2FA40F2FF1001F042FBD4
:104540004FEAC8004FF47A714843B0FBF4F0454994
:10455000886083E0002001F071FA0120414981F870
:104560003800084680F850404448815D3D4880F856
:10457000511080F852B01EB90B2C05D00C2C03D072
:10458000012E06D10C2C04D10121364880F853109D
:1045900003E00021334880F853100120314988732B
:1045A000084690F85000052804D0084690F85000BE
:1045B000062808D10C2F03DA0C212A48818304E055
:1045C0002848878301E027488783264880F81E9083
:1045D000254801782348C177139980F8201016994F
:1045E00080F8211000F0D0FB1E4991F8381009B175
:1045F000012100E000210846FFF74CFE1948383041
:1046000000F0BAFF17480E3001F074F808F0FF0010
:1046100000F090FF134890F8210001280CD140F2DF
:10462000367000F0EDFE20F004000146009040F2EC
:10463000367001F0F3FA0BE040F2367000F0E0FE65
:1046400040F004000146009040F2367001F0E6FAB6
:104650004FF6FF700349886000E000BF00BF05B05F
:10466000BDE8F08FE004002044000020B2270000E5
:1046700000000000C194C10000000000F0800008AC
:1046800070B504460D46054991F85600002101F029
:10469000DFF92946204601F06FF970BDE0040020E3
:1046A0002DE9FC4780460C4616461F464FF0000990
:1046B00000200090019006B100270EB1012000E01B
:1046C00000208B494870B8F1000F03D0B8F1010FFA
:1046D00075D175E0E06808B1206918B94FF0FF3076
:1046E000BDE8FC87607D082802DD4FF0FF30F7E76A
:1046F000002004E0A169095C0DF80010401C617DF8
:104700008142F7DC94F8230008B9257F00E0FF25FB
:10471000216809B1012100E00021084601F08EF96D
:104720000020734981F838007148E168C16321793C
:1047300080F84410A068FFF7C5F901466C4880F87E
:10474000451000206A4988734FF6FF71206901EA1D
:10475000C00167480182217D8174607DC006010E21
:104760006348C17494F82210017594F823104175C0
:10477000857594F82410C17594F82810017600F01E
:1047800003FB0020FFF786FD5948383000F0F4FEA7
:1047900057480E3000F0AEFF684601F06FF9208CEC
:1047A00001F010FAE08C00F073FE4FF47A70784359
:1047B000C000E168B0FBF1F04D49886094E092E000
:1047C000A08E10B94FF0FF308AE73620005D012837
:1047D00001D1257F00E0FF25E16A09B1012100E058
:1047E0000021084601F02AF9F8B200F0A3FE0120EA
:1047F0003F4981F838003020015D3D4880F8501075
:104800003120015D3A4880F851103220015D38486E
:1048100080F852103320005D20B1012807D0022813
:104820001CD109E00021324880F8531017E0012123
:104830002F4880F8531012E03020005D0B2803D081
:104840003020005D0C2804D10121294880F8531044
:1048500003E00021264880F8531000E000BF00BFAD
:10486000012023498873A18E214881833620015D70
:104870001F488177C5773820015D1D4880F82010DA
:104880003920015D1A4880F8211000F07DFA0120DE
:10489000FFF700FD1648383000F06EFE14480E3069
:1048A00000F028FF124890F8210001280BD140F2B7
:1048B000367000F0A5FD20F0040A514640F2367033
:1048C00001F0ACF90AE040F2367000F099FD40F0DA
:1048D000040A514640F2367001F0A0F94FF6FF701D
:1048E0000349886000E000BF00BF4846F8E60000CA
:1048F000E00400202DE9FC5F0746884691461D46EE
:10490000DDE90FAB0E9E0C9C97B1012F60D0032FF9
:104910007BD1FFF7BFFC0220714981F838000846BF
:104920008464162180F84C10383000F025FEABE08E
:1049300000206B4981F838000846C4630B2180F8D9
:1049400044102846FFF7BEF80146654880F8451038
:10495000C0F840900020624988734FF6FF7000EA6B
:10496000C6015F480182042181741821C1740021AD
:1049700001758AF001014175BBF1010F02D1F221ED
:10498000C17502E001215648C175012154480176E4
:1049900000F0FAF9524991F8381009B1012100E00C
:1049A00000210846FFF776FC4D48383000F0E4FD62
:1049B0004B480E3000F09EFE4AA103C9CDE900012C
:1049C000684601F05BF840F2FF1001F0FBF85BE095
:1049D0000120434981F83800084680F85040434898
:1049E000415D3F4880F851100D9980F852101DB973
:1049F0000B2C05D00C2C03D0012D07D10C2C05D18C
:104A00000121374880F8531004E03CE0002134488D
:104A100080F85310012032498873084690F85000FE
:104A2000052804D0084690F85000062808D10C2E1E
:104A300003DA0C212A48818304E02948868301E0B7
:104A400027488683264880F81EA0294801782448F4
:104A5000C17780F820B0139980F8211000F094F904
:104A60001F4991F8381009B1012100E000210846E2
:104A7000FFF710FC1A48383000F07EFD18480E3061
:104A800000F038FE00BF00BF00BF012F11D1144855
:104A900090F8510006280CD140F6890000F0B0FCD7
:104AA00020F004000146019040F6890001F0B6F8BC
:104AB0000BE040F6890000F0A3FC40F00400014642
:104AC000019040F6890001F0A9F8404600F0FCFE94
:104AD000034981F8560014984860BDE8FC9F000027
:104AE000E0040020C194C10000000000F080000834
:104AF000440000202DE9F04106460C4615464FF4CF
:104B00007A7005FB00F7304600F0AAFE204600F060
:104B1000DBFE80460121404600F09AFF00F0ECFFEA
:104B200000BF3946054802F0F9FD00BF00BF034849
:104B300002F010FE00BFBDE8F08100003805002043
:104B40002DE9FC4105460C4616461F460020009004
:104B5000019025B1012D5ED0022D77D1DCE0A06857
:104B600008B1206918B94FF0FF30BDE8FC81207D05
:104B7000082802DD4FF0FF30F7E7002004E0A169CC
:104B8000095C0DF80010401C217D8142F7DC0020FB
:104B9000744981F838007348A168C163217880F8AE
:104BA00044106068FEF78EFF01466E4880F845109D
:104BB000E168016400206B4988734FF6FF7120693A
:104BC00001EAC0016748018204218174207DC0068A
:104BD000010E6448C17400210175A17F4175E17F18
:104BE000C17594F82210017600F0CEF80020FFF78E
:104BF00051FB5C48383000F0BFFC5A480E3000F0E2
:104C000079FD684600F03AFFA08B00F0DBFF208CB6
:104C100000F03EFC9BE00120524981F8380094F8F6
:104C20002410504880F850102520015D4D4880F830
:104C300051102620015D4B4880F852102720005D5E
:104C400028B1012808D002281DD10AE07EE0002109
:104C5000444880F8531017E00121424880F853106F
:104C600012E094F824000B2803D094F824000C28B8
:104C700004D101213B4880F8531003E0002139485A
:104C800080F8531000E000BF00BF2720005D08B18E
:104C9000012100E00021334880F853100120314900
:104CA0008873218D2F4881832A20015D2D488177CB
:104CB0002B20015D2B4880F820102C20015D294815
:104CC00080F8211000F060F80120FFF7E3FA254892
:104CD000383000F051FC23480E3000F00BFD214825
:104CE00090F8510006280BD140F6890000F088FBAF
:104CF00020F00408414640F6890000F08FFF0AE0EA
:104D000040F6890000F07CFB40F00408414640F684
:104D1000890000F083FF1AE0A06818B1A068B0F520
:104D20007A7F02D94FF0FF301FE70220FFF7B2FA77
:104D300002200C4981F838000A48216B8164162151
:104D400080F84C10383000F017FC00E000BF00BFC6
:104D5000304600F0B9FD034981F856000846476027
:104D6000002002E7E004002008B5002000909DF834
:104D7000000020F00400001D0090009800F020FECC
:104D80000220FBF7CCFD08BD10B5002000F040FE6E
:104D900010BD10B500231A464FF4C071084600F04C
:104DA000A1FB00F065FB10BD2DE9FE4F81460E46CC
:104DB00015461F46DDE90EAB4FF000080124B9F19E
:104DC000000F03D0B9F1010F21D10DE0CDE900AB07
:104DD00039462846DDE90C23FEF78CFE4FF47A7144
:104DE00000FB01F82C4613E00D988DE8010C3A46C3
:104DF000294630460C9BFEF7C1FE4FF47A7100FB4A
:104E000001F80749885DFEF789FE044600E000BF0F
:104E100000BF08EB0400401EB0FBF4F0BDE8FE8FBD
:104E2000F080000870B50446204600F04DFD0546B0
:104E30000121284600F00CFE00F05EFE70BD00006F
:104E400010B5094991F85600012100F001FE07480C
:104E50002D21426C4FF4D760904700F057FE044874
:104E600000F030FE10BD0000E0040020C47F000808
:104E7000FFFF0F0070B504460D462946204600F09E
:104E8000CDFE70BD70B504460D4616463246294625
:104E9000204600F0CFFE70BD70B50446FEF720FD41
:104EA00001280DD140F6231000F0AAFA054625F09E
:104EB000060545EA040140F6231000F0AFFE00BFEE
:104EC00070BD0000034600221946080C000408B912
:104ED0001022090401F07F4018B902F10800C2B2A3
:104EE000090201F0704010B9101DC2B20901054855
:104EF00000EB117000781044C2B2C2F11F00C0B2C2
:104F000070470000F38000080849096821F040015B
:104F1000064A116040F4417111604FF4B85151607C
:104F20001146096841F040011160704700000158C6
:104F300018B5024600201E4B1B68C3EBC303C3F326
:104F40004C43642413FB04F3009300BF009B1BB984
:104F500001200123936008E0009B5B1E0093154B2A
:104F60009B6803F00203022BF0D100BFFF23114C1A
:104F700023730F4B1B68C3EBC303C3F34C4364247D
:104F800013FB04F3009300BF009B1BB90120012316
:104F9000936008E0009B5B1E0093064B9B6803F048
:104FA0000103002BF0D000BF024BDB680B7018BD73
:104FB000300000200000015818B5024600201D4BAB
:104FC0001B68C3EBC303C3F34C43642413FB04F318
:104FD000009300BF009B1BB901200123936008E0F0
:104FE000009B5B1E0093144B9B6803F00203022B93
:104FF000F0D100BF104B19730E4B1B68C3EBC303FA
:10500000C3F34C43642413FB04F3009300BF009BE1
:105010001BB901200123936008E0009B5B1E0093F5
:10502000054B9B6803F00103002BF0D000BF024B3F
:10503000DB6818BD300000200000015810B50446A0
:105040002079012806D1FDF725FF0120FBF767FC39
:10505000FDF734FF204600F009F810BD10B50248F6
:10506000FDF7CCF810BD0000B000002018B50246D6
:105070000020124B1B6803EB4303C3F34B43642430
:1050800013FB04F3009300BF00BF0D4B1B68C3F379
:10509000800100BF009B1BB90120022393600AE03E
:1050A000009B5B1E009300BF054B1B68C3F34003CE
:1050B0000B40002BE8D100BF18BD000030000020DD
:1050C0001404005801B582B09DF80800C0F38010A8
:1050D00080019DF80810C1F3401140EA41109DF88D
:1050E0000810C1F3001140EA01109DF80810C1F347
:1050F000C00140EAC1009DF80810C1F3800140EAF8
:1051000081009DF80810C1F3400140EA41009DF87C
:10511000081001F0010108430190012301AA89212F
:105120000148FDF711F80EBDB000002038B5044667
:105130001B48844206D9E1208DF80000E9208DF853
:10514000010026E01748844206D9D7208DF80000D8
:10515000DB208DF801001CE01348844206D9C120F1
:105160008DF80000C5208DF8010012E00F48844240
:1051700006D975208DF8000081208DF8010008E027
:105180000B48844205D96B208DF800006F208DF804
:10519000010002236A4698210648FCF7D5FF38BD76
:1051A00000E9A43580F8A9328044E52D000B6B1B83
:1051B00040FC5419B00000200148007870470000FE
:1051C0003400002038B5044603236A4614212048E1
:1051D000FCF776FF00F040F82070207820B101281D
:1051E00014D00F2828D128E09DF8000020719DF8E8
:1051F00001004042401041B2A1719DF802004042BE
:10520000401041B261710021A1601EE09DF80000D4
:105210004042401041B221739DF8010040B2801C11
:10522000811061739DF802004042401041B2A173A9
:1052300008480168216108E000BF142200212046CF
:1052400002F0BCF80F20207000BF00BF38BD000086
:10525000B0000020380000200148007870470000AE
:1052600035000020F8B505460C4616460020009093
:105270006946204600F058F82078B04201DD012050
:10528000F8BD227829469DF8000000F0ABF8002018
:10529000F6E710B5FEF7ECFA10BD38B50020009027
:1052A0000024002540F6E20000F0AAF8044624F0AD
:1052B000010140F6E20000F0B1FC40F6E50000F02C
:1052C0009FF8054625F0800140F6E50000F0A6FCB9
:1052D0006FF07F4000F018FB0422694640F6190089
:1052E00000F09CF8002000F093FB214640F6E2001D
:1052F00000F094FC294640F6E50000F08FFC009891
:1053000038BD000038B5002401236A461521054840
:10531000FCF7D6FE9DF800004042401044B2204603
:1053200038BD0000B000002038B504460D46022309
:105330006A4613210B48FCF7C3FEFFF78DFF0128D7
:1053400009D109480078012805D140F2027000F027
:1053500057F8207002E09DF8000020709DF80100D1
:10536000287038BDB00000203600002038B5044653
:105370000CB1194804600220FFF78EFDFDF722FFF3
:1053800000201649087000F043FBFEF7ABFA012835
:1053900011D1FEF76DFA85012946012000F078FB56
:1053A000002140F6111000F039FC7F200090009899
:1053B000FFF788FE09E0202140F6111000F02EFCD6
:1053C000202140F6121000F029FCFEF753FA0120CC
:1053D0000349087038BD0000400000203C00002058
:1053E0003400002070B504460D46164633462A4662
:1053F00021460248FCF7D2FF70BD0000B00000203B
:1054000038B5044601236A4621460348FDF70EF8E5
:105410009DF8000038BD0000B000002070B50446C3
:105420000D46164633462A4621460248FCF7FEFF43
:1054300070BD0000B000002070B505460E46144651
:105440003146284600F0F0F9204600F03BFB70BDE5
:1054500038B505460C468DF800508DF80140022302
:105460006A468F210148FCF76FFE38BDB00000206E
:1054700010B500231A46C5210348FCF765FE072036
:105480000249087010BD0000B00000203400002068
:1054900038B50446200A8DF80000E0B28DF801000E
:1054A000FFF7DAFE30B90222694640F2BE6000F032
:1054B000C1FB00E000BF00BF38BD38B50446200A7C
:1054C0008DF80000E0B28DF80100FFF7C5FE30B99D
:1054D0000222694640F2BC6000F0ACFB00E000BF75
:1054E00000BF38BD2DE9FC4107460C4615461E4657
:1054F000380A8DF80000F8B28DF80100200A8DF806
:105500000200E0B28DF80300280A8DF80400E8B22A
:105510008DF80500300A8DF80600F0B28DF807000E
:1055200008236A4619460248FCF70EFEBDE8FC81D6
:10553000B0000020F1B501236A46A0210D48FCF718
:1055400003FE9DF80000402813DB9DF80000441086
:105550000025002602E0A410681CC5B21F2CFADC4E
:1055600005EBC400C6B2314640F2067000F056FBAF
:1055700000BFF8BDB00000202DE9FC410446002525
:1055800000200090019020784B490978884202D091
:10559000207800F031F9207802283CD003DC38B1C3
:1055A00001287DD150E0032863D00F287FD17FE010
:1055B0004FF0080841496068B1FBF0F5280C8DF800
:1055C0000000280A8DF80100E8B28DF80200207B67
:1055D0008DF80300607B8DF8040000BF00214906B0
:1055E000A06841EAD0114606354A00233046FAF752
:1055F000BFFD054600BF280C8DF80500280A8DF870
:105600000600E8B28DF8070043466A468B212D4814
:10561000FCF79AFD4DE04FF0040828492069B1FBE2
:10562000F0F5280C8DF80000280A8DF80100E8B28A
:105630008DF80200207D8DF8030043466A468B21D9
:105640002048FCF781FD34E04FF00408207E8DF8FF
:105650000000607E8DF80100A07E8DF80200E07EE3
:105660008DF8030043466A468B211648FCF76CFD13
:105670001FE04FF0050811496068B1FBF0F5280CF8
:105680008DF80000280A8DF80100E8B28DF80200BC
:10569000207B8DF80300607B8DF80400434600E01A
:1056A00005E06A468B210748FCF74EFD01E000BF8C
:1056B00000BF00BFBDE8FC81350000200000093DAF
:1056C0000048E801B0000020F8B504460D46164633
:1056D0001F468DF800408DF801508DF802608DF85E
:1056E000037004236A4695210148FCF72DFDF8BD9F
:1056F000B0000020FEB50446002600200090019076
:105700000290207839490978884202D0207800F048
:1057100073F82078022842D003DC40B101285AD126
:1057200042E0032802D00F2855D155E000BF607A2F
:10573000F12809D14FF6FF70FFF7BFFE48F20500D0
:10574000FFF7A6FE02260DE0607AF22809D141F6A5
:105750000F50FFF7B2FE41F22100FFF799FE062637
:1057600000E0667A09256088000A8DF80000A078BC
:105770008DF8010020798DF8020060798DF8030022
:10578000A0798DF80400E0798DF80500207A8DF875
:1057900006008DF80760A07A8DF808001DE001254D
:1057A000207B8DF8000018E00625E089000A8DF8BE
:1057B0000000A07B8DF80100207C0D4908708DF859
:1057C0000200607C8DF80300A07C8DF80400E07C72
:1057D0008DF8050001E000BFFEBD00BF2B466A4604
:1057E0008C210448FCF7B0FC00BFF5E73500002031
:1057F00036000020B000002001B59DF800000849E7
:1058000008709DF8000020B9002140F2AC6000F063
:1058100005FA01236A468A210248FCF795FC08BD77
:1058200035000020B000002070B504460D462A4621
:105830002146002000F0E4F970BD000008B5FEF735
:105840004FF8012801D1009001E0002000900123D1
:105850006A4696210148FCF777FC08BDB00000209D
:10586000F8B50446002500BF1448007828B9204642
:10587000FFF75CFC01201149087000BF00204006C2
:1058800040EAD41166060E4A00233046FAF770FC4F
:10589000054600BF280E8DF80000280C8DF8010089
:1058A000280A8DF80200E8B28DF8030004236A4646
:1058B00086210448FCF748FCF8BD00003C000020AD
:1058C0000048E801B000002070B504460125FDF74E
:1058D000CDFF064626B1012E08D0022E0AD107E0E0
:1058E0000F2C01DD022500E0012504E0012502E086
:1058F000022500E000BF00BF02222146284600F03A
:105900000FF9284670BD000038B504460520094946
:105910000870200C8DF80000200A8DF80100E0B21C
:105920008DF8020003236A4682210348FCF70CFC31
:1059300038BD000034000020B000002038B5044617
:1059400005200B490870972140F6AC0000F066F97D
:10595000200C8DF80000200A8DF80100E0B28DF8CF
:10596000020003236A4682210248FCF7EDFB38BDA2
:1059700034000020B00000207CB505460C46280C01
:105980008DF80000280A8DF80100E8B28DF80200B9
:10599000200C8DF80300200A8DF80400E0B28DF889
:1059A000050006236A4694210348FCF7CDFB062038
:1059B000024908707CBD0000B000002034000020C7
:1059C00001B582B00020FDF701FF0220FFF764FA65
:1059D0009DF80800C0F3800080009DF80810C1F316
:1059E000400140EA41009DF8081001F00101084320
:1059F0000190012301AA84210348FCF7A5FB0020A4
:105A0000024908700EBD0000B000002034000020E4
:105A100001B501236A4680210648FCF795FB9DF8F5
:105A2000000018B901200449087002E00220024970
:105A3000087008BDB00000203400002001B501232B
:105A40006A469F210148FCF77FFB08BDB00000209B
:105A500070B504460D460126012D09D1012C03D154
:105A600002260420FFF718FA022C03D1032601E0D6
:105A700005B901263046FDF7A9FE70BD10B50446F4
:105A8000082221464FF4D86000F0D4F8002010BD61
:105A900038B505460C4605F007008DF80000200CCF
:105AA0008DF80100200A8DF80200E0B28DF80300A5
:105AB00004236A4697210248FCF746FB38BD0000E4
:105AC000B000002038B50446042009490870200CB5
:105AD0008DF80000200A8DF80100E0B28DF8020078
